{
  "contractName": "CliqToken",
  "abi": [
    {
      "inputs": [],
      "stateMutability": "nonpayable",
      "type": "constructor"
    },
    {
      "anonymous": false,
      "inputs": [
        {
          "indexed": false,
          "internalType": "address",
          "name": "_recipient",
          "type": "address"
        },
        {
          "indexed": false,
          "internalType": "uint256",
          "name": "_amount",
          "type": "uint256"
        },
        {
          "indexed": false,
          "internalType": "uint256",
          "name": "_date",
          "type": "uint256"
        }
      ],
      "name": "AirdropProcessed",
      "type": "event"
    },
    {
      "anonymous": false,
      "inputs": [
        {
          "indexed": true,
          "internalType": "address",
          "name": "owner",
          "type": "address"
        },
        {
          "indexed": true,
          "internalType": "address",
          "name": "spender",
          "type": "address"
        },
        {
          "indexed": false,
          "internalType": "uint256",
          "name": "value",
          "type": "uint256"
        }
      ],
      "name": "Approval",
      "type": "event"
    },
    {
      "anonymous": false,
      "inputs": [
        {
          "indexed": true,
          "internalType": "address",
          "name": "from",
          "type": "address"
        },
        {
          "indexed": true,
          "internalType": "address",
          "name": "to",
          "type": "address"
        },
        {
          "indexed": false,
          "internalType": "uint256",
          "name": "value",
          "type": "uint256"
        }
      ],
      "name": "Transfer",
      "type": "event"
    },
    {
      "inputs": [
        {
          "internalType": "uint256",
          "name": "",
          "type": "uint256"
        }
      ],
      "name": "_airdropAddressList",
      "outputs": [
        {
          "internalType": "address",
          "name": "",
          "type": "address"
        }
      ],
      "stateMutability": "view",
      "type": "function"
    },
    {
      "inputs": [
        {
          "internalType": "uint256",
          "name": "",
          "type": "uint256"
        }
      ],
      "name": "_airdropAmountList",
      "outputs": [
        {
          "internalType": "uint256",
          "name": "",
          "type": "uint256"
        }
      ],
      "stateMutability": "view",
      "type": "function"
    },
    {
      "inputs": [],
      "name": "_currentAirdropAmount",
      "outputs": [
        {
          "internalType": "uint256",
          "name": "",
          "type": "uint256"
        }
      ],
      "stateMutability": "view",
      "type": "function"
    },
    {
      "inputs": [],
      "name": "_maxAirdropAmount",
      "outputs": [
        {
          "internalType": "uint256",
          "name": "",
          "type": "uint256"
        }
      ],
      "stateMutability": "view",
      "type": "function"
    },
    {
      "inputs": [
        {
          "internalType": "address",
          "name": "",
          "type": "address"
        }
      ],
      "name": "_processedAirdrop",
      "outputs": [
        {
          "internalType": "bool",
          "name": "",
          "type": "bool"
        }
      ],
      "stateMutability": "view",
      "type": "function"
    },
    {
      "inputs": [
        {
          "internalType": "address",
          "name": "owner",
          "type": "address"
        },
        {
          "internalType": "address",
          "name": "spender",
          "type": "address"
        }
      ],
      "name": "allowance",
      "outputs": [
        {
          "internalType": "uint256",
          "name": "",
          "type": "uint256"
        }
      ],
      "stateMutability": "view",
      "type": "function"
    },
    {
      "inputs": [
        {
          "internalType": "address",
          "name": "spender",
          "type": "address"
        },
        {
          "internalType": "uint256",
          "name": "amount",
          "type": "uint256"
        }
      ],
      "name": "approve",
      "outputs": [
        {
          "internalType": "bool",
          "name": "",
          "type": "bool"
        }
      ],
      "stateMutability": "nonpayable",
      "type": "function"
    },
    {
      "inputs": [
        {
          "internalType": "address",
          "name": "account",
          "type": "address"
        }
      ],
      "name": "balanceOf",
      "outputs": [
        {
          "internalType": "uint256",
          "name": "",
          "type": "uint256"
        }
      ],
      "stateMutability": "view",
      "type": "function"
    },
    {
      "inputs": [],
      "name": "decimals",
      "outputs": [
        {
          "internalType": "uint8",
          "name": "",
          "type": "uint8"
        }
      ],
      "stateMutability": "view",
      "type": "function"
    },
    {
      "inputs": [
        {
          "internalType": "address",
          "name": "spender",
          "type": "address"
        },
        {
          "internalType": "uint256",
          "name": "subtractedValue",
          "type": "uint256"
        }
      ],
      "name": "decreaseAllowance",
      "outputs": [
        {
          "internalType": "bool",
          "name": "",
          "type": "bool"
        }
      ],
      "stateMutability": "nonpayable",
      "type": "function"
    },
    {
      "inputs": [
        {
          "internalType": "address",
          "name": "spender",
          "type": "address"
        },
        {
          "internalType": "uint256",
          "name": "addedValue",
          "type": "uint256"
        }
      ],
      "name": "increaseAllowance",
      "outputs": [
        {
          "internalType": "bool",
          "name": "",
          "type": "bool"
        }
      ],
      "stateMutability": "nonpayable",
      "type": "function"
    },
    {
      "inputs": [],
      "name": "name",
      "outputs": [
        {
          "internalType": "string",
          "name": "",
          "type": "string"
        }
      ],
      "stateMutability": "view",
      "type": "function"
    },
    {
      "inputs": [],
      "name": "symbol",
      "outputs": [
        {
          "internalType": "string",
          "name": "",
          "type": "string"
        }
      ],
      "stateMutability": "view",
      "type": "function"
    },
    {
      "inputs": [],
      "name": "totalSupply",
      "outputs": [
        {
          "internalType": "uint256",
          "name": "",
          "type": "uint256"
        }
      ],
      "stateMutability": "view",
      "type": "function"
    },
    {
      "inputs": [
        {
          "internalType": "address",
          "name": "to",
          "type": "address"
        },
        {
          "internalType": "uint256",
          "name": "amount",
          "type": "uint256"
        }
      ],
      "name": "transfer",
      "outputs": [
        {
          "internalType": "bool",
          "name": "",
          "type": "bool"
        }
      ],
      "stateMutability": "nonpayable",
      "type": "function"
    },
    {
      "inputs": [
        {
          "internalType": "address",
          "name": "from",
          "type": "address"
        },
        {
          "internalType": "address",
          "name": "to",
          "type": "address"
        },
        {
          "internalType": "uint256",
          "name": "amount",
          "type": "uint256"
        }
      ],
      "name": "transferFrom",
      "outputs": [
        {
          "internalType": "bool",
          "name": "",
          "type": "bool"
        }
      ],
      "stateMutability": "nonpayable",
      "type": "function"
    },
    {
      "inputs": [
        {
          "internalType": "address",
          "name": "_newAdmin",
          "type": "address"
        }
      ],
      "name": "changeAdmin",
      "outputs": [],
      "stateMutability": "nonpayable",
      "type": "function"
    },
    {
      "inputs": [
        {
          "internalType": "address",
          "name": "_address",
          "type": "address"
        },
        {
          "internalType": "uint256",
          "name": "_amount",
          "type": "uint256"
        }
      ],
      "name": "addAddressForAirDrop",
      "outputs": [],
      "stateMutability": "nonpayable",
      "type": "function"
    },
    {
      "inputs": [
        {
          "internalType": "address",
          "name": "_address",
          "type": "address"
        }
      ],
      "name": "removeAddressForAirDrop",
      "outputs": [],
      "stateMutability": "nonpayable",
      "type": "function"
    },
    {
      "inputs": [],
      "name": "clearAirdropList",
      "outputs": [],
      "stateMutability": "nonpayable",
      "type": "function"
    },
    {
      "inputs": [
        {
          "internalType": "address",
          "name": "to",
          "type": "address"
        },
        {
          "internalType": "uint256",
          "name": "amount",
          "type": "uint256"
        }
      ],
      "name": "mint",
      "outputs": [],
      "stateMutability": "nonpayable",
      "type": "function"
    },
    {
      "inputs": [
        {
          "internalType": "uint256",
          "name": "amount",
          "type": "uint256"
        }
      ],
      "name": "burn",
      "outputs": [],
      "stateMutability": "nonpayable",
      "type": "function"
    },
    {
      "inputs": [
        {
          "internalType": "address",
          "name": "_recipient",
          "type": "address"
        }
      ],
      "name": "claimToken",
      "outputs": [],
      "stateMutability": "nonpayable",
      "type": "function"
    },
    {
      "inputs": [],
      "name": "getAdmin",
      "outputs": [
        {
          "internalType": "address",
          "name": "",
          "type": "address"
        }
      ],
      "stateMutability": "view",
      "type": "function"
    },
    {
      "inputs": [],
      "name": "getMaxAirdropAmount",
      "outputs": [
        {
          "internalType": "uint256",
          "name": "",
          "type": "uint256"
        }
      ],
      "stateMutability": "view",
      "type": "function"
    },
    {
      "inputs": [],
      "name": "getCurrentAirdropAmount",
      "outputs": [
        {
          "internalType": "uint256",
          "name": "",
          "type": "uint256"
        }
      ],
      "stateMutability": "view",
      "type": "function"
    },
    {
      "inputs": [],
      "name": "getWhitelistedAddress",
      "outputs": [
        {
          "internalType": "address[]",
          "name": "",
          "type": "address[]"
        }
      ],
      "stateMutability": "view",
      "type": "function"
    },
    {
      "inputs": [],
      "name": "getAllocatedAmount",
      "outputs": [
        {
          "internalType": "uint256[]",
          "name": "",
          "type": "uint256[]"
        }
      ],
      "stateMutability": "view",
      "type": "function"
    },
    {
      "inputs": [
        {
          "internalType": "address",
          "name": "_address",
          "type": "address"
        }
      ],
      "name": "getProcessedAirdrop",
      "outputs": [
        {
          "internalType": "bool",
          "name": "",
          "type": "bool"
        }
      ],
      "stateMutability": "view",
      "type": "function"
    }
  ],
  "bytecode": "0x60806040523480156200001157600080fd5b506040518060400160405280600a81526020017f434c495120546f6b656e000000000000000000000000000000000000000000008152506040518060400160405280600481526020017f434c495100000000000000000000000000000000000000000000000000000000815250816003908051906020019062000096929190620002d6565b508060049080519060200190620000af929190620002d6565b505050620000d0336b02d49c3727a53d22ec0000006200014960201b60201c565b33600660006101000a81548173ffffffffffffffffffffffffffffffffffffffff021916908373ffffffffffffffffffffffffffffffffffffffff160217905550606462000123620002c260201b60201c565b600f620001319190620003bf565b6200013d91906200044f565b600981905550620005fa565b600073ffffffffffffffffffffffffffffffffffffffff168273ffffffffffffffffffffffffffffffffffffffff161415620001bc576040517f08c379a0000000000000000000000000000000000000000000000000000000008152600401620001b390620004e8565b60405180910390fd5b620001d060008383620002cc60201b60201c565b8060026000828254620001e491906200050a565b92505081905550806000808473ffffffffffffffffffffffffffffffffffffffff1673ffffffffffffffffffffffffffffffffffffffff16815260200190815260200160002060008282546200023b91906200050a565b925050819055508173ffffffffffffffffffffffffffffffffffffffff16600073ffffffffffffffffffffffffffffffffffffffff167fddf252ad1be2c89b69c2b068fc378daa952ba7f163c4a11628f55a4df523b3ef83604051620002a2919062000578565b60405180910390a3620002be60008383620002d160201b60201c565b5050565b6000600254905090565b505050565b505050565b828054620002e490620005c4565b90600052602060002090601f01602090048101928262000308576000855562000354565b82601f106200032357805160ff191683800117855562000354565b8280016001018555821562000354579182015b828111156200035357825182559160200191906001019062000336565b5b50905062000363919062000367565b5090565b5b808211156200038257600081600090555060010162000368565b5090565b6000819050919050565b7f4e487b7100000000000000000000000000000000000000000000000000000000600052601160045260246000fd5b6000620003cc8262000386565b9150620003d98362000386565b9250817fffffffffffffffffffffffffffffffffffffffffffffffffffffffffffffffff048311821515161562000415576200041462000390565b5b828202905092915050565b7f4e487b7100000000000000000000000000000000000000000000000000000000600052601260045260246000fd5b60006200045c8262000386565b9150620004698362000386565b9250826200047c576200047b62000420565b5b828204905092915050565b600082825260208201905092915050565b7f45524332303a206d696e7420746f20746865207a65726f206164647265737300600082015250565b6000620004d0601f8362000487565b9150620004dd8262000498565b602082019050919050565b600060208201905081810360008301526200050381620004c1565b9050919050565b6000620005178262000386565b9150620005248362000386565b9250827fffffffffffffffffffffffffffffffffffffffffffffffffffffffffffffffff038211156200055c576200055b62000390565b5b828201905092915050565b620005728162000386565b82525050565b60006020820190506200058f600083018462000567565b92915050565b7f4e487b7100000000000000000000000000000000000000000000000000000000600052602260045260246000fd5b60006002820490506001821680620005dd57607f821691505b60208210811415620005f457620005f362000595565b5b50919050565b612ed0806200060a6000396000f3fe608060405234801561001057600080fd5b50600436106101cf5760003560e01c80636e9960c311610104578063a8cc95a3116100a2578063dd62ed3e11610071578063dd62ed3e14610556578063f2a21f0614610586578063fb6195af146105a4578063fff8cbd4146105c2576101cf565b8063a8cc95a3146104bc578063a9059cbb146104ec578063c70051a31461051c578063ca5e957b14610538576101cf565b80638f283970116100de5780638f2839701461043457806395d89b4114610450578063a457c2d71461046e578063a888dda01461049e576101cf565b80636e9960c3146103dc57806370a08231146103fa5780637dc112081461042a576101cf565b806332f289cf1161017157806340c10f191161014b57806340c10f191461035657806342966c68146103725780635632f66c1461038e57806368906024146103be576101cf565b806332f289cf146102ee5780633536e3db1461030a5780633950935114610326576101cf565b80630c75b0a4116101ad5780630c75b0a41461025257806318160ddd1461028257806323b872dd146102a0578063313ce567146102d0576101cf565b806302270b15146101d457806306fdde0314610204578063095ea7b314610222575b600080fd5b6101ee60048036038101906101e99190611f7b565b6105e0565b6040516101fb9190611fc3565b60405180910390f35b61020c610600565b6040516102199190612077565b60405180910390f35b61023c600480360381019061023791906120cf565b610692565b6040516102499190611fc3565b60405180910390f35b61026c60048036038101906102679190611f7b565b6106b5565b6040516102799190611fc3565b60405180910390f35b61028a61070b565b604051610297919061211e565b60405180910390f35b6102ba60048036038101906102b59190612139565b610715565b6040516102c79190611fc3565b60405180910390f35b6102d8610744565b6040516102e591906121a8565b60405180910390f35b61030860048036038101906103039190611f7b565b61074d565b005b610324600480360381019061031f91906120cf565b610aeb565b005b610340600480360381019061033b91906120cf565b610d2f565b60405161034d9190611fc3565b60405180910390f35b610370600480360381019061036b91906120cf565b610d66565b005b61038c600480360381019061038791906121c3565b610e04565b005b6103a860048036038101906103a391906121c3565b610e11565b6040516103b5919061211e565b60405180910390f35b6103c6610e35565b6040516103d3919061211e565b60405180910390f35b6103e4610e3b565b6040516103f191906121ff565b60405180910390f35b610414600480360381019061040f9190611f7b565b610e65565b604051610421919061211e565b60405180910390f35b610432610ead565b005b61044e60048036038101906104499190611f7b565b610f5b565b005b61045861109f565b6040516104659190612077565b60405180910390f35b610488600480360381019061048391906120cf565b611131565b6040516104959190611fc3565b60405180910390f35b6104a66111a8565b6040516104b391906122d8565b60405180910390f35b6104d660048036038101906104d191906121c3565b611236565b6040516104e391906121ff565b60405180910390f35b610506600480360381019061050191906120cf565b611275565b6040516105139190611fc3565b60405180910390f35b61053660048036038101906105319190611f7b565b611298565b005b61054061159f565b60405161054d919061211e565b60405180910390f35b610570600480360381019061056b91906122fa565b6115a5565b60405161057d919061211e565b60405180910390f35b61058e61162c565b60405161059b919061211e565b60405180910390f35b6105ac611636565b6040516105b991906123f8565b60405180910390f35b6105ca61168e565b6040516105d7919061211e565b60405180910390f35b60056020528060005260406000206000915054906101000a900460ff1681565b60606003805461060f90612449565b80601f016020809104026020016040519081016040528092919081815260200182805461063b90612449565b80156106885780601f1061065d57610100808354040283529160200191610688565b820191906000526020600020905b81548152906001019060200180831161066b57829003601f168201915b5050505050905090565b60008061069d611698565b90506106aa8185856116a0565b600191505092915050565b6000600560008373ffffffffffffffffffffffffffffffffffffffff1673ffffffffffffffffffffffffffffffffffffffff16815260200190815260200160002060009054906101000a900460ff169050919050565b6000600254905090565b600080610720611698565b905061072d85828561186b565b6107388585856118f7565b60019150509392505050565b60006012905090565b6000806001905060001515600560008573ffffffffffffffffffffffffffffffffffffffff1673ffffffffffffffffffffffffffffffffffffffff16815260200190815260200160002060009054906101000a900460ff161515146107e7576040517f08c379a00000000000000000000000000000000000000000000000000000000081526004016107de906124ed565b60405180910390fd5b60005b600780549050811015610888578373ffffffffffffffffffffffffffffffffffffffff16600782815481106108225761082161250d565b5b9060005260206000200160009054906101000a900473ffffffffffffffffffffffffffffffffffffffff1673ffffffffffffffffffffffffffffffffffffffff1614156108755780925060009150610888565b80806108809061256b565b9150506107ea565b5060008160ff16148061090457508273ffffffffffffffffffffffffffffffffffffffff16600783815481106108c1576108c061250d565b5b9060005260206000200160009054906101000a900473ffffffffffffffffffffffffffffffffffffffff1673ffffffffffffffffffffffffffffffffffffffff16145b610943576040517f08c379a000000000000000000000000000000000000000000000000000000000815260040161093a90612626565b60405180910390fd5b6009546008838154811061095a5761095961250d565b5b9060005260206000200154600a546109729190612646565b11156109b3576040517f08c379a00000000000000000000000000000000000000000000000000000000081526004016109aa9061270e565b60405180910390fd5b6001600560008573ffffffffffffffffffffffffffffffffffffffff1673ffffffffffffffffffffffffffffffffffffffff16815260200190815260200160002060006101000a81548160ff02191690831515021790555060088281548110610a1f57610a1e61250d565b5b9060005260206000200154600a6000828254610a3b9190612646565b92505081905550610a8d600660009054906101000a900473ffffffffffffffffffffffffffffffffffffffff168460088581548110610a7d57610a7c61250d565b5b90600052602060002001546118f7565b7fc0312d3bf25e86c787fa77f4d038213e428dc722e16d38ca9719e987d20f7c7c8360088481548110610ac357610ac261250d565b5b906000526020600020015442604051610ade9392919061272e565b60405180910390a1505050565b600660009054906101000a900473ffffffffffffffffffffffffffffffffffffffff1673ffffffffffffffffffffffffffffffffffffffff163373ffffffffffffffffffffffffffffffffffffffff1614610b7b576040517f08c379a0000000000000000000000000000000000000000000000000000000008152600401610b72906127d7565b60405180910390fd5b6000811415610bbf576040517f08c379a0000000000000000000000000000000000000000000000000000000008152600401610bb690612843565b60405180910390fd5b6000806001905060005b600780549050811015610c67578473ffffffffffffffffffffffffffffffffffffffff1660078281548110610c0157610c0061250d565b5b9060005260206000200160009054906101000a900473ffffffffffffffffffffffffffffffffffffffff1673ffffffffffffffffffffffffffffffffffffffff161415610c545780925060009150610c67565b8080610c5f9061256b565b915050610bc9565b5060008160ff161415610c9c578260088381548110610c8957610c8861250d565b5b9060005260206000200181905550610d29565b6007849080600181540180825580915050600190039060005260206000200160009091909190916101000a81548173ffffffffffffffffffffffffffffffffffffffff021916908373ffffffffffffffffffffffffffffffffffffffff16021790555060088390806001815401808255809150506001900390600052602060002001600090919091909150555b50505050565b600080610d3a611698565b9050610d5b818585610d4c85896115a5565b610d569190612646565b6116a0565b600191505092915050565b600660009054906101000a900473ffffffffffffffffffffffffffffffffffffffff1673ffffffffffffffffffffffffffffffffffffffff163373ffffffffffffffffffffffffffffffffffffffff1614610df6576040517f08c379a0000000000000000000000000000000000000000000000000000000008152600401610ded906127d7565b60405180910390fd5b610e008282611b78565b5050565b610e0e3382611cd8565b50565b60088181548110610e2157600080fd5b906000526020600020016000915090505481565b60095481565b6000600660009054906101000a900473ffffffffffffffffffffffffffffffffffffffff16905090565b60008060008373ffffffffffffffffffffffffffffffffffffffff1673ffffffffffffffffffffffffffffffffffffffff168152602001908152602001600020549050919050565b600660009054906101000a900473ffffffffffffffffffffffffffffffffffffffff1673ffffffffffffffffffffffffffffffffffffffff163373ffffffffffffffffffffffffffffffffffffffff1614610f3d576040517f08c379a0000000000000000000000000000000000000000000000000000000008152600401610f34906127d7565b60405180910390fd5b60076000610f4b9190611eb9565b60086000610f599190611eda565b565b600660009054906101000a900473ffffffffffffffffffffffffffffffffffffffff1673ffffffffffffffffffffffffffffffffffffffff163373ffffffffffffffffffffffffffffffffffffffff1614610feb576040517f08c379a0000000000000000000000000000000000000000000000000000000008152600401610fe2906127d7565b60405180910390fd5b600073ffffffffffffffffffffffffffffffffffffffff168173ffffffffffffffffffffffffffffffffffffffff16141561105b576040517f08c379a0000000000000000000000000000000000000000000000000000000008152600401611052906128af565b60405180910390fd5b80600660006101000a81548173ffffffffffffffffffffffffffffffffffffffff021916908373ffffffffffffffffffffffffffffffffffffffff16021790555050565b6060600480546110ae90612449565b80601f01602080910402602001604051908101604052809291908181526020018280546110da90612449565b80156111275780601f106110fc57610100808354040283529160200191611127565b820191906000526020600020905b81548152906001019060200180831161110a57829003601f168201915b5050505050905090565b60008061113c611698565b9050600061114a82866115a5565b90508381101561118f576040517f08c379a000000000000000000000000000000000000000000000000000000000815260040161118690612941565b60405180910390fd5b61119c82868684036116a0565b60019250505092915050565b6060600780548060200260200160405190810160405280929190818152602001828054801561122c57602002820191906000526020600020905b8160009054906101000a900473ffffffffffffffffffffffffffffffffffffffff1673ffffffffffffffffffffffffffffffffffffffff16815260200190600101908083116111e2575b5050505050905090565b6007818154811061124657600080fd5b906000526020600020016000915054906101000a900473ffffffffffffffffffffffffffffffffffffffff1681565b600080611280611698565b905061128d8185856118f7565b600191505092915050565b600660009054906101000a900473ffffffffffffffffffffffffffffffffffffffff1673ffffffffffffffffffffffffffffffffffffffff163373ffffffffffffffffffffffffffffffffffffffff1614611328576040517f08c379a000000000000000000000000000000000000000000000000000000000815260040161131f906127d7565b60405180910390fd5b600073ffffffffffffffffffffffffffffffffffffffff168173ffffffffffffffffffffffffffffffffffffffff161415611398576040517f08c379a000000000000000000000000000000000000000000000000000000000815260040161138f906128af565b60405180910390fd5b60005b60078054905081101561159b57600781815481106113bc576113bb61250d565b5b9060005260206000200160009054906101000a900473ffffffffffffffffffffffffffffffffffffffff1673ffffffffffffffffffffffffffffffffffffffff168273ffffffffffffffffffffffffffffffffffffffff161415611588576007600160078054905061142e9190612961565b8154811061143f5761143e61250d565b5b9060005260206000200160009054906101000a900473ffffffffffffffffffffffffffffffffffffffff166007828154811061147e5761147d61250d565b5b9060005260206000200160006101000a81548173ffffffffffffffffffffffffffffffffffffffff021916908373ffffffffffffffffffffffffffffffffffffffff160217905550600860016008805490506114da9190612961565b815481106114eb576114ea61250d565b5b90600052602060002001546008828154811061150a5761150961250d565b5b9060005260206000200181905550600780548061152a57611529612995565b5b6001900381819060005260206000200160006101000a81549073ffffffffffffffffffffffffffffffffffffffff02191690559055600880548061157157611570612995565b5b600190038181906000526020600020016000905590555b80806115939061256b565b91505061139b565b5050565b600a5481565b6000600160008473ffffffffffffffffffffffffffffffffffffffff1673ffffffffffffffffffffffffffffffffffffffff16815260200190815260200160002060008373ffffffffffffffffffffffffffffffffffffffff1673ffffffffffffffffffffffffffffffffffffffff16815260200190815260200160002054905092915050565b6000600a54905090565b6060600880548060200260200160405190810160405280929190818152602001828054801561168457602002820191906000526020600020905b815481526020019060010190808311611670575b5050505050905090565b6000600954905090565b600033905090565b600073ffffffffffffffffffffffffffffffffffffffff168373ffffffffffffffffffffffffffffffffffffffff161415611710576040517f08c379a000000000000000000000000000000000000000000000000000000000815260040161170790612a36565b60405180910390fd5b600073ffffffffffffffffffffffffffffffffffffffff168273ffffffffffffffffffffffffffffffffffffffff161415611780576040517f08c379a000000000000000000000000000000000000000000000000000000000815260040161177790612ac8565b60405180910390fd5b80600160008573ffffffffffffffffffffffffffffffffffffffff1673ffffffffffffffffffffffffffffffffffffffff16815260200190815260200160002060008473ffffffffffffffffffffffffffffffffffffffff1673ffffffffffffffffffffffffffffffffffffffff168152602001908152602001600020819055508173ffffffffffffffffffffffffffffffffffffffff168373ffffffffffffffffffffffffffffffffffffffff167f8c5be1e5ebec7d5bd14f71427d1e84f3dd0314c0f7b2291e5b200ac8c7c3b9258360405161185e919061211e565b60405180910390a3505050565b600061187784846115a5565b90507fffffffffffffffffffffffffffffffffffffffffffffffffffffffffffffffff81146118f157818110156118e3576040517f08c379a00000000000000000000000000000000000000000000000000000000081526004016118da90612b34565b60405180910390fd5b6118f084848484036116a0565b5b50505050565b600073ffffffffffffffffffffffffffffffffffffffff168373ffffffffffffffffffffffffffffffffffffffff161415611967576040517f08c379a000000000000000000000000000000000000000000000000000000000815260040161195e90612bc6565b60405180910390fd5b600073ffffffffffffffffffffffffffffffffffffffff168273ffffffffffffffffffffffffffffffffffffffff1614156119d7576040517f08c379a00000000000000000000000000000000000000000000000000000000081526004016119ce90612c58565b60405180910390fd5b6119e2838383611eaf565b60008060008573ffffffffffffffffffffffffffffffffffffffff1673ffffffffffffffffffffffffffffffffffffffff16815260200190815260200160002054905081811015611a68576040517f08c379a0000000000000000000000000000000000000000000000000000000008152600401611a5f90612cea565b60405180910390fd5b8181036000808673ffffffffffffffffffffffffffffffffffffffff1673ffffffffffffffffffffffffffffffffffffffff16815260200190815260200160002081905550816000808573ffffffffffffffffffffffffffffffffffffffff1673ffffffffffffffffffffffffffffffffffffffff1681526020019081526020016000206000828254611afb9190612646565b925050819055508273ffffffffffffffffffffffffffffffffffffffff168473ffffffffffffffffffffffffffffffffffffffff167fddf252ad1be2c89b69c2b068fc378daa952ba7f163c4a11628f55a4df523b3ef84604051611b5f919061211e565b60405180910390a3611b72848484611eb4565b50505050565b600073ffffffffffffffffffffffffffffffffffffffff168273ffffffffffffffffffffffffffffffffffffffff161415611be8576040517f08c379a0000000000000000000000000000000000000000000000000000000008152600401611bdf90612d56565b60405180910390fd5b611bf460008383611eaf565b8060026000828254611c069190612646565b92505081905550806000808473ffffffffffffffffffffffffffffffffffffffff1673ffffffffffffffffffffffffffffffffffffffff1681526020019081526020016000206000828254611c5b9190612646565b925050819055508173ffffffffffffffffffffffffffffffffffffffff16600073ffffffffffffffffffffffffffffffffffffffff167fddf252ad1be2c89b69c2b068fc378daa952ba7f163c4a11628f55a4df523b3ef83604051611cc0919061211e565b60405180910390a3611cd460008383611eb4565b5050565b600073ffffffffffffffffffffffffffffffffffffffff168273ffffffffffffffffffffffffffffffffffffffff161415611d48576040517f08c379a0000000000000000000000000000000000000000000000000000000008152600401611d3f90612de8565b60405180910390fd5b611d5482600083611eaf565b60008060008473ffffffffffffffffffffffffffffffffffffffff1673ffffffffffffffffffffffffffffffffffffffff16815260200190815260200160002054905081811015611dda576040517f08c379a0000000000000000000000000000000000000000000000000000000008152600401611dd190612e7a565b60405180910390fd5b8181036000808573ffffffffffffffffffffffffffffffffffffffff1673ffffffffffffffffffffffffffffffffffffffff168152602001908152602001600020819055508160026000828254611e319190612961565b92505081905550600073ffffffffffffffffffffffffffffffffffffffff168373ffffffffffffffffffffffffffffffffffffffff167fddf252ad1be2c89b69c2b068fc378daa952ba7f163c4a11628f55a4df523b3ef84604051611e96919061211e565b60405180910390a3611eaa83600084611eb4565b505050565b505050565b505050565b5080546000825590600052602060002090810190611ed79190611efb565b50565b5080546000825590600052602060002090810190611ef89190611efb565b50565b5b80821115611f14576000816000905550600101611efc565b5090565b600080fd5b600073ffffffffffffffffffffffffffffffffffffffff82169050919050565b6000611f4882611f1d565b9050919050565b611f5881611f3d565b8114611f6357600080fd5b50565b600081359050611f7581611f4f565b92915050565b600060208284031215611f9157611f90611f18565b5b6000611f9f84828501611f66565b91505092915050565b60008115159050919050565b611fbd81611fa8565b82525050565b6000602082019050611fd86000830184611fb4565b92915050565b600081519050919050565b600082825260208201905092915050565b60005b83811015612018578082015181840152602081019050611ffd565b83811115612027576000848401525b50505050565b6000601f19601f8301169050919050565b600061204982611fde565b6120538185611fe9565b9350612063818560208601611ffa565b61206c8161202d565b840191505092915050565b60006020820190508181036000830152612091818461203e565b905092915050565b6000819050919050565b6120ac81612099565b81146120b757600080fd5b50565b6000813590506120c9816120a3565b92915050565b600080604083850312156120e6576120e5611f18565b5b60006120f485828601611f66565b9250506020612105858286016120ba565b9150509250929050565b61211881612099565b82525050565b6000602082019050612133600083018461210f565b92915050565b60008060006060848603121561215257612151611f18565b5b600061216086828701611f66565b935050602061217186828701611f66565b9250506040612182868287016120ba565b9150509250925092565b600060ff82169050919050565b6121a28161218c565b82525050565b60006020820190506121bd6000830184612199565b92915050565b6000602082840312156121d9576121d8611f18565b5b60006121e7848285016120ba565b91505092915050565b6121f981611f3d565b82525050565b600060208201905061221460008301846121f0565b92915050565b600081519050919050565b600082825260208201905092915050565b6000819050602082019050919050565b61224f81611f3d565b82525050565b60006122618383612246565b60208301905092915050565b6000602082019050919050565b60006122858261221a565b61228f8185612225565b935061229a83612236565b8060005b838110156122cb5781516122b28882612255565b97506122bd8361226d565b92505060018101905061229e565b5085935050505092915050565b600060208201905081810360008301526122f2818461227a565b905092915050565b6000806040838503121561231157612310611f18565b5b600061231f85828601611f66565b925050602061233085828601611f66565b9150509250929050565b600081519050919050565b600082825260208201905092915050565b6000819050602082019050919050565b61236f81612099565b82525050565b60006123818383612366565b60208301905092915050565b6000602082019050919050565b60006123a58261233a565b6123af8185612345565b93506123ba83612356565b8060005b838110156123eb5781516123d28882612375565b97506123dd8361238d565b9250506001810190506123be565b5085935050505092915050565b60006020820190508181036000830152612412818461239a565b905092915050565b7f4e487b7100000000000000000000000000000000000000000000000000000000600052602260045260246000fd5b6000600282049050600182168061246157607f821691505b602082108114156124755761247461241a565b5b50919050565b7f41697264726f7020616c72656164792050726f63657373656420666f7220746860008201527f6973206164647265737300000000000000000000000000000000000000000000602082015250565b60006124d7602a83611fe9565b91506124e28261247b565b604082019050919050565b60006020820190508181036000830152612506816124ca565b9050919050565b7f4e487b7100000000000000000000000000000000000000000000000000000000600052603260045260246000fd5b7f4e487b7100000000000000000000000000000000000000000000000000000000600052601160045260246000fd5b600061257682612099565b91507fffffffffffffffffffffffffffffffffffffffffffffffffffffffffffffffff8214156125a9576125a861253c565b5b600182019050919050565b7f546869732061646472657373206973206e6f7420656c696769626c6520666f7260008201527f207468652061697264726f700000000000000000000000000000000000000000602082015250565b6000612610602c83611fe9565b915061261b826125b4565b604082019050919050565b6000602082019050818103600083015261263f81612603565b9050919050565b600061265182612099565b915061265c83612099565b9250827fffffffffffffffffffffffffffffffffffffffffffffffffffffffffffffffff038211156126915761269061253c565b5b828201905092915050565b7f41697264726f707065642031303025206f662074686520616c6c6f636174656460008201527f20616d6f756e7400000000000000000000000000000000000000000000000000602082015250565b60006126f8602783611fe9565b91506127038261269c565b604082019050919050565b60006020820190508181036000830152612727816126eb565b9050919050565b600060608201905061274360008301866121f0565b612750602083018561210f565b61275d604083018461210f565b949350505050565b7f4f6e6c792061646d696e2063616e20706572666f726d2074686973206163746960008201527f6f6e000000000000000000000000000000000000000000000000000000000000602082015250565b60006127c1602283611fe9565b91506127cc82612765565b604082019050919050565b600060208201905081810360008301526127f0816127b4565b9050919050565b7f416d6f756e742063616e6e6f74206265205a65726f0000000000000000000000600082015250565b600061282d601583611fe9565b9150612838826127f7565b602082019050919050565b6000602082019050818103600083015261285c81612820565b9050919050565b7f416464726573732063616e6e6f74206265205a65726f20416464726573730000600082015250565b6000612899601e83611fe9565b91506128a482612863565b602082019050919050565b600060208201905081810360008301526128c88161288c565b9050919050565b7f45524332303a2064656372656173656420616c6c6f77616e63652062656c6f7760008201527f207a65726f000000000000000000000000000000000000000000000000000000602082015250565b600061292b602583611fe9565b9150612936826128cf565b604082019050919050565b6000602082019050818103600083015261295a8161291e565b9050919050565b600061296c82612099565b915061297783612099565b92508282101561298a5761298961253c565b5b828203905092915050565b7f4e487b7100000000000000000000000000000000000000000000000000000000600052603160045260246000fd5b7f45524332303a20617070726f76652066726f6d20746865207a65726f2061646460008201527f7265737300000000000000000000000000000000000000000000000000000000602082015250565b6000612a20602483611fe9565b9150612a2b826129c4565b604082019050919050565b60006020820190508181036000830152612a4f81612a13565b9050919050565b7f45524332303a20617070726f766520746f20746865207a65726f20616464726560008201527f7373000000000000000000000000000000000000000000000000000000000000602082015250565b6000612ab2602283611fe9565b9150612abd82612a56565b604082019050919050565b60006020820190508181036000830152612ae181612aa5565b9050919050565b7f45524332303a20696e73756666696369656e7420616c6c6f77616e6365000000600082015250565b6000612b1e601d83611fe9565b9150612b2982612ae8565b602082019050919050565b60006020820190508181036000830152612b4d81612b11565b9050919050565b7f45524332303a207472616e736665722066726f6d20746865207a65726f20616460008201527f6472657373000000000000000000000000000000000000000000000000000000602082015250565b6000612bb0602583611fe9565b9150612bbb82612b54565b604082019050919050565b60006020820190508181036000830152612bdf81612ba3565b9050919050565b7f45524332303a207472616e7366657220746f20746865207a65726f206164647260008201527f6573730000000000000000000000000000000000000000000000000000000000602082015250565b6000612c42602383611fe9565b9150612c4d82612be6565b604082019050919050565b60006020820190508181036000830152612c7181612c35565b9050919050565b7f45524332303a207472616e7366657220616d6f756e742065786365656473206260008201527f616c616e63650000000000000000000000000000000000000000000000000000602082015250565b6000612cd4602683611fe9565b9150612cdf82612c78565b604082019050919050565b60006020820190508181036000830152612d0381612cc7565b9050919050565b7f45524332303a206d696e7420746f20746865207a65726f206164647265737300600082015250565b6000612d40601f83611fe9565b9150612d4b82612d0a565b602082019050919050565b60006020820190508181036000830152612d6f81612d33565b9050919050565b7f45524332303a206275726e2066726f6d20746865207a65726f2061646472657360008201527f7300000000000000000000000000000000000000000000000000000000000000602082015250565b6000612dd2602183611fe9565b9150612ddd82612d76565b604082019050919050565b60006020820190508181036000830152612e0181612dc5565b9050919050565b7f45524332303a206275726e20616d6f756e7420657863656564732062616c616e60008201527f6365000000000000000000000000000000000000000000000000000000000000602082015250565b6000612e64602283611fe9565b9150612e6f82612e08565b604082019050919050565b60006020820190508181036000830152612e9381612e57565b905091905056fea2646970667358221220251275fecd49c28218f503625737385d85a42cc425d22c22f6596b8258de58dd64736f6c634300080a0033",
  "immutableReferences": {},
  "source": "// SPDX-License-Identifier: MIT\r\n\r\npragma solidity >=0.8.10;\r\n\r\n\r\n/**\r\n * @dev Provides information about the current execution context, including the\r\n * sender of the transaction and its data. While these are generally available\r\n * via msg.sender and msg.data, they should not be accessed in such a direct\r\n * manner, since when dealing with meta-transactions the account sending and\r\n * paying for execution may not be the actual sender (as far as an application\r\n * is concerned).\r\n *\r\n * This contract is only required for intermediate, library-like contracts.\r\n */\r\nabstract contract Context {\r\n    function _msgSender() internal view virtual returns (address) {\r\n        return msg.sender;\r\n    }\r\n\r\n    function _msgData() internal view virtual returns (bytes calldata) {\r\n        return msg.data;\r\n    }\r\n}\r\ninterface IERC20 {\r\n    /**\r\n     * @dev Returns the amount of tokens in existence.\r\n     */\r\n    function totalSupply() external view returns (uint256);\r\n\r\n    /**\r\n     * @dev Returns the amount of tokens owned by `account`.\r\n     */\r\n    function balanceOf(address account) external view returns (uint256);\r\n\r\n    /**\r\n     * @dev Moves `amount` tokens from the caller's account to `to`.\r\n     *\r\n     * Returns a boolean value indicating whether the operation succeeded.\r\n     *\r\n     * Emits a {Transfer} event.\r\n     */\r\n    function transfer(address to, uint256 amount) external returns (bool);\r\n\r\n    /**\r\n     * @dev Returns the remaining number of tokens that `spender` will be\r\n     * allowed to spend on behalf of `owner` through {transferFrom}. This is\r\n     * zero by default.\r\n     *\r\n     * This value changes when {approve} or {transferFrom} are called.\r\n     */\r\n    function allowance(address owner, address spender) external view returns (uint256);\r\n\r\n    /**\r\n     * @dev Sets `amount` as the allowance of `spender` over the caller's tokens.\r\n     *\r\n     * Returns a boolean value indicating whether the operation succeeded.\r\n     *\r\n     * IMPORTANT: Beware that changing an allowance with this method brings the risk\r\n     * that someone may use both the old and the new allowance by unfortunate\r\n     * transaction ordering. One possible solution to mitigate this race\r\n     * condition is to first reduce the spender's allowance to 0 and set the\r\n     * desired value afterwards:\r\n     * https://github.com/ethereum/EIPs/issues/20#issuecomment-263524729\r\n     *\r\n     * Emits an {Approval} event.\r\n     */\r\n    function approve(address spender, uint256 amount) external returns (bool);\r\n\r\n    /**\r\n     * @dev Moves `amount` tokens from `from` to `to` using the\r\n     * allowance mechanism. `amount` is then deducted from the caller's\r\n     * allowance.\r\n     *\r\n     * Returns a boolean value indicating whether the operation succeeded.\r\n     *\r\n     * Emits a {Transfer} event.\r\n     */\r\n    function transferFrom(\r\n        address from,\r\n        address to,\r\n        uint256 amount\r\n    ) external returns (bool);\r\n\r\n    /**\r\n     * @dev Emitted when `value` tokens are moved from one account (`from`) to\r\n     * another (`to`).\r\n     *\r\n     * Note that `value` may be zero.\r\n     */\r\n    event Transfer(address indexed from, address indexed to, uint256 value);\r\n\r\n    /**\r\n     * @dev Emitted when the allowance of a `spender` for an `owner` is set by\r\n     * a call to {approve}. `value` is the new allowance.\r\n     */\r\n    event Approval(address indexed owner, address indexed spender, uint256 value);\r\n}\r\n\r\ninterface IERC20Metadata is IERC20 {\r\n    /**\r\n     * @dev Returns the name of the token.\r\n     */\r\n    function name() external view returns (string memory);\r\n\r\n    /**\r\n     * @dev Returns the symbol of the token.\r\n     */\r\n    function symbol() external view returns (string memory);\r\n\r\n    /**\r\n     * @dev Returns the decimals places of the token.\r\n     */\r\n    function decimals() external view returns (uint8);\r\n}\r\ncontract ERC20 is Context, IERC20, IERC20Metadata {\r\n    mapping(address => uint256) private _balances;\r\n\r\n    mapping(address => mapping(address => uint256)) private _allowances;\r\n\r\n    uint256 private _totalSupply;\r\n\r\n    string private _name;\r\n    string private _symbol;\r\n\r\n    /**\r\n     * @dev Sets the values for {name} and {symbol}.\r\n     *\r\n     * The default value of {decimals} is 18. To select a different value for\r\n     * {decimals} you should overload it.\r\n     *\r\n     * All two of these values are immutable: they can only be set once during\r\n     * construction.\r\n     */\r\n    constructor(string memory name_, string memory symbol_) {\r\n        _name = name_;\r\n        _symbol = symbol_;\r\n    }\r\n\r\n    /**\r\n     * @dev Returns the name of the token.\r\n     */\r\n    function name() public view virtual override returns (string memory) {\r\n        return _name;\r\n    }\r\n\r\n    /**\r\n     * @dev Returns the symbol of the token, usually a shorter version of the\r\n     * name.\r\n     */\r\n    function symbol() public view virtual override returns (string memory) {\r\n        return _symbol;\r\n    }\r\n\r\n    /**\r\n     * @dev Returns the number of decimals used to get its user representation.\r\n     * For example, if `decimals` equals `2`, a balance of `505` tokens should\r\n     * be displayed to a user as `5.05` (`505 / 10 ** 2`).\r\n     *\r\n     * Tokens usually opt for a value of 18, imitating the relationship between\r\n     * Ether and Wei. This is the value {ERC20} uses, unless this function is\r\n     * overridden;\r\n     *\r\n     * NOTE: This information is only used for _display_ purposes: it in\r\n     * no way affects any of the arithmetic of the contract, including\r\n     * {IERC20-balanceOf} and {IERC20-transfer}.\r\n     */\r\n    function decimals() public view virtual override returns (uint8) {\r\n        return 18;\r\n    }\r\n\r\n    /**\r\n     * @dev See {IERC20-totalSupply}.\r\n     */\r\n    function totalSupply() public view virtual override returns (uint256) {\r\n        return _totalSupply;\r\n    }\r\n\r\n    /**\r\n     * @dev See {IERC20-balanceOf}.\r\n     */\r\n    function balanceOf(address account) public view virtual override returns (uint256) {\r\n        return _balances[account];\r\n    }\r\n\r\n    /**\r\n     * @dev See {IERC20-transfer}.\r\n     *\r\n     * Requirements:\r\n     *\r\n     * - `to` cannot be the zero address.\r\n     * - the caller must have a balance of at least `amount`.\r\n     */\r\n    function transfer(address to, uint256 amount) public virtual override returns (bool) {\r\n        address owner = _msgSender();\r\n        _transfer(owner, to, amount);\r\n        return true;\r\n    }\r\n\r\n    /**\r\n     * @dev See {IERC20-allowance}.\r\n     */\r\n    function allowance(address owner, address spender) public view virtual override returns (uint256) {\r\n        return _allowances[owner][spender];\r\n    }\r\n\r\n    /**\r\n     * @dev See {IERC20-approve}.\r\n     *\r\n     * NOTE: If `amount` is the maximum `uint256`, the allowance is not updated on\r\n     * `transferFrom`. This is semantically equivalent to an infinite approval.\r\n     *\r\n     * Requirements:\r\n     *\r\n     * - `spender` cannot be the zero address.\r\n     */\r\n    function approve(address spender, uint256 amount) public virtual override returns (bool) {\r\n        address owner = _msgSender();\r\n        _approve(owner, spender, amount);\r\n        return true;\r\n    }\r\n\r\n    /**\r\n     * @dev See {IERC20-transferFrom}.\r\n     *\r\n     * Emits an {Approval} event indicating the updated allowance. This is not\r\n     * required by the EIP. See the note at the beginning of {ERC20}.\r\n     *\r\n     * NOTE: Does not update the allowance if the current allowance\r\n     * is the maximum `uint256`.\r\n     *\r\n     * Requirements:\r\n     *\r\n     * - `from` and `to` cannot be the zero address.\r\n     * - `from` must have a balance of at least `amount`.\r\n     * - the caller must have allowance for ``from``'s tokens of at least\r\n     * `amount`.\r\n     */\r\n    function transferFrom(\r\n        address from,\r\n        address to,\r\n        uint256 amount\r\n    ) public virtual override returns (bool) {\r\n        address spender = _msgSender();\r\n        _spendAllowance(from, spender, amount);\r\n        _transfer(from, to, amount);\r\n        return true;\r\n    }\r\n\r\n    /**\r\n     * @dev Atomically increases the allowance granted to `spender` by the caller.\r\n     *\r\n     * This is an alternative to {approve} that can be used as a mitigation for\r\n     * problems described in {IERC20-approve}.\r\n     *\r\n     * Emits an {Approval} event indicating the updated allowance.\r\n     *\r\n     * Requirements:\r\n     *\r\n     * - `spender` cannot be the zero address.\r\n     */\r\n    function increaseAllowance(address spender, uint256 addedValue) public virtual returns (bool) {\r\n        address owner = _msgSender();\r\n        _approve(owner, spender, allowance(owner, spender) + addedValue);\r\n        return true;\r\n    }\r\n\r\n    /**\r\n     * @dev Atomically decreases the allowance granted to `spender` by the caller.\r\n     *\r\n     * This is an alternative to {approve} that can be used as a mitigation for\r\n     * problems described in {IERC20-approve}.\r\n     *\r\n     * Emits an {Approval} event indicating the updated allowance.\r\n     *\r\n     * Requirements:\r\n     *\r\n     * - `spender` cannot be the zero address.\r\n     * - `spender` must have allowance for the caller of at least\r\n     * `subtractedValue`.\r\n     */\r\n    function decreaseAllowance(address spender, uint256 subtractedValue) public virtual returns (bool) {\r\n        address owner = _msgSender();\r\n        uint256 currentAllowance = allowance(owner, spender);\r\n        require(currentAllowance >= subtractedValue, \"ERC20: decreased allowance below zero\");\r\n        unchecked {\r\n            _approve(owner, spender, currentAllowance - subtractedValue);\r\n        }\r\n\r\n        return true;\r\n    }\r\n\r\n    /**\r\n     * @dev Moves `amount` of tokens from `sender` to `recipient`.\r\n     *\r\n     * This internal function is equivalent to {transfer}, and can be used to\r\n     * e.g. implement automatic token fees, slashing mechanisms, etc.\r\n     *\r\n     * Emits a {Transfer} event.\r\n     *\r\n     * Requirements:\r\n     *\r\n     * - `from` cannot be the zero address.\r\n     * - `to` cannot be the zero address.\r\n     * - `from` must have a balance of at least `amount`.\r\n     */\r\n    function _transfer(\r\n        address from,\r\n        address to,\r\n        uint256 amount\r\n    ) internal virtual {\r\n        require(from != address(0), \"ERC20: transfer from the zero address\");\r\n        require(to != address(0), \"ERC20: transfer to the zero address\");\r\n\r\n        _beforeTokenTransfer(from, to, amount);\r\n\r\n        uint256 fromBalance = _balances[from];\r\n        require(fromBalance >= amount, \"ERC20: transfer amount exceeds balance\");\r\n        unchecked {\r\n            _balances[from] = fromBalance - amount;\r\n        }\r\n        _balances[to] += amount;\r\n\r\n        emit Transfer(from, to, amount);\r\n\r\n        _afterTokenTransfer(from, to, amount);\r\n    }\r\n\r\n    /** @dev Creates `amount` tokens and assigns them to `account`, increasing\r\n     * the total supply.\r\n     *\r\n     * Emits a {Transfer} event with `from` set to the zero address.\r\n     *\r\n     * Requirements:\r\n     *\r\n     * - `account` cannot be the zero address.\r\n     */\r\n    function _mint(address account, uint256 amount) internal virtual {\r\n        require(account != address(0), \"ERC20: mint to the zero address\");\r\n\r\n        _beforeTokenTransfer(address(0), account, amount);\r\n\r\n        _totalSupply += amount;\r\n        _balances[account] += amount;\r\n        emit Transfer(address(0), account, amount);\r\n\r\n        _afterTokenTransfer(address(0), account, amount);\r\n    }\r\n\r\n    /**\r\n     * @dev Destroys `amount` tokens from `account`, reducing the\r\n     * total supply.\r\n     *\r\n     * Emits a {Transfer} event with `to` set to the zero address.\r\n     *\r\n     * Requirements:\r\n     *\r\n     * - `account` cannot be the zero address.\r\n     * - `account` must have at least `amount` tokens.\r\n     */\r\n    function _burn(address account, uint256 amount) internal virtual {\r\n        require(account != address(0), \"ERC20: burn from the zero address\");\r\n\r\n        _beforeTokenTransfer(account, address(0), amount);\r\n\r\n        uint256 accountBalance = _balances[account];\r\n        require(accountBalance >= amount, \"ERC20: burn amount exceeds balance\");\r\n        unchecked {\r\n            _balances[account] = accountBalance - amount;\r\n        }\r\n        _totalSupply -= amount;\r\n\r\n        emit Transfer(account, address(0), amount);\r\n\r\n        _afterTokenTransfer(account, address(0), amount);\r\n    }\r\n\r\n    /**\r\n     * @dev Sets `amount` as the allowance of `spender` over the `owner` s tokens.\r\n     *\r\n     * This internal function is equivalent to `approve`, and can be used to\r\n     * e.g. set automatic allowances for certain subsystems, etc.\r\n     *\r\n     * Emits an {Approval} event.\r\n     *\r\n     * Requirements:\r\n     *\r\n     * - `owner` cannot be the zero address.\r\n     * - `spender` cannot be the zero address.\r\n     */\r\n    function _approve(\r\n        address owner,\r\n        address spender,\r\n        uint256 amount\r\n    ) internal virtual {\r\n        require(owner != address(0), \"ERC20: approve from the zero address\");\r\n        require(spender != address(0), \"ERC20: approve to the zero address\");\r\n\r\n        _allowances[owner][spender] = amount;\r\n        emit Approval(owner, spender, amount);\r\n    }\r\n\r\n    /**\r\n     * @dev Updates `owner` s allowance for `spender` based on spent `amount`.\r\n     *\r\n     * Does not update the allowance amount in case of infinite allowance.\r\n     * Revert if not enough allowance is available.\r\n     *\r\n     * Might emit an {Approval} event.\r\n     */\r\n    function _spendAllowance(\r\n        address owner,\r\n        address spender,\r\n        uint256 amount\r\n    ) internal virtual {\r\n        uint256 currentAllowance = allowance(owner, spender);\r\n        if (currentAllowance != type(uint256).max) {\r\n            require(currentAllowance >= amount, \"ERC20: insufficient allowance\");\r\n            unchecked {\r\n                _approve(owner, spender, currentAllowance - amount);\r\n            }\r\n        }\r\n    }\r\n\r\n    /**\r\n     * @dev Hook that is called before any transfer of tokens. This includes\r\n     * minting and burning.\r\n     *\r\n     * Calling conditions:\r\n     *\r\n     * - when `from` and `to` are both non-zero, `amount` of ``from``'s tokens\r\n     * will be transferred to `to`.\r\n     * - when `from` is zero, `amount` tokens will be minted for `to`.\r\n     * - when `to` is zero, `amount` of ``from``'s tokens will be burned.\r\n     * - `from` and `to` are never both zero.\r\n     *\r\n     * To learn more about hooks, head to xref:ROOT:extending-contracts.adoc#using-hooks[Using Hooks].\r\n     */\r\n    function _beforeTokenTransfer(\r\n        address from,\r\n        address to,\r\n        uint256 amount\r\n    ) internal virtual {}\r\n\r\n    /**\r\n     * @dev Hook that is called after any transfer of tokens. This includes\r\n     * minting and burning.\r\n     *\r\n     * Calling conditions:\r\n     *\r\n     * - when `from` and `to` are both non-zero, `amount` of ``from``'s tokens\r\n     * has been transferred to `to`.\r\n     * - when `from` is zero, `amount` tokens have been minted for `to`.\r\n     * - when `to` is zero, `amount` of ``from``'s tokens have been burned.\r\n     * - `from` and `to` are never both zero.\r\n     *\r\n     * To learn more about hooks, head to xref:ROOT:extending-contracts.adoc#using-hooks[Using Hooks].\r\n     */\r\n    function _afterTokenTransfer(\r\n        address from,\r\n        address to,\r\n        uint256 amount\r\n    ) internal virtual {}\r\n}\r\n\r\ncontract CliqToken is ERC20 {\r\n  mapping(address => bool) public _processedAirdrop;\r\n\r\n  address private _admin;\r\n  address[] public _airdropAddressList;\r\n  uint256[] public _airdropAmountList;\r\n  uint256 public _maxAirdropAmount;\r\n  uint256 public _currentAirdropAmount;\r\n\r\n  event AirdropProcessed(address _recipient, uint256 _amount, uint256 _date);\r\n  constructor() ERC20(\"CLIQ Token\", \"CLIQ\") {\r\n    _mint(msg.sender, 876000000 * 10**18);\r\n    _admin = msg.sender;\r\n    _maxAirdropAmount = (15 * totalSupply()) / 100; // Max amount for Air drop is allocatied to 15% of total supply.\r\n  }\r\n\r\n  modifier onlyAdmin() {\r\n    require(msg.sender == _admin, \"Only admin can perform this action\");\r\n    _;\r\n  }\r\n\r\n  // Funtion to Change the admin of the smart contract\r\n  function changeAdmin(address _newAdmin) external onlyAdmin {\r\n    require(_newAdmin != address(0), \"Address cannot be Zero Address\");\r\n\r\n    _admin = _newAdmin;\r\n  }\r\n\r\n  // This function will let the admin to add specific address for the Airdrop.\r\n  function addAddressForAirDrop(address _address, uint256 _amount) public onlyAdmin\r\n  {\r\n    require(_amount != 0, \"Amount cannot be Zero\");\r\n\r\n    uint256 index;\r\n    uint8 flag = 1;\r\n\r\n    for (uint256 i = 0; i < _airdropAddressList.length; i++) {\r\n      if (_airdropAddressList[i] == _address) {\r\n        index = i;\r\n        flag = 0;\r\n        break;\r\n      }\r\n    }\r\n\r\n    if(flag == 0) {\r\n      _airdropAmountList[index] = _amount;\r\n    }\r\n    else {\r\n      _airdropAddressList.push(_address);\r\n      _airdropAmountList.push(_amount);\r\n    }\r\n  }\r\n\r\n  // This function will let the admin to remove specific address for the Airdrop.\r\n  function removeAddressForAirDrop(address _address) external onlyAdmin {\r\n    require(_address != address(0), \"Address cannot be Zero Address\");\r\n\r\n    for (uint256 i = 0; i < _airdropAddressList.length; i++) {\r\n      if (_address == _airdropAddressList[i]) {\r\n        _airdropAddressList[i] = _airdropAddressList[\r\n          _airdropAddressList.length - 1\r\n        ];\r\n        _airdropAmountList[i] = _airdropAmountList[\r\n          _airdropAmountList.length - 1\r\n        ];\r\n        _airdropAddressList.pop();\r\n        _airdropAmountList.pop();\r\n      }\r\n    }\r\n    \r\n  }\r\n\r\n  function clearAirdropList() external onlyAdmin {\r\n    delete _airdropAddressList;\r\n    delete _airdropAmountList;\r\n  }\r\n\r\n  // This function will help the admin to add more Token to the initial supply.\r\n  function mint(address to, uint256 amount) external onlyAdmin {\r\n    _mint(to, amount);\r\n  }\r\n\r\n  // Anyone can burn thier own token if required.\r\n  function burn(uint256 amount) external {\r\n    _burn(msg.sender, amount);\r\n  }\r\n\r\n  function claimToken(address _recipient) external {\r\n    uint256 index;\r\n    uint8 flag = 1;\r\n    require(\r\n      _processedAirdrop[_recipient] == false,\r\n      \"Airdrop already Processed for this address\"\r\n    );\r\n\r\n    for (uint256 i = 0; i < _airdropAddressList.length; i++) {\r\n      if (_airdropAddressList[i] == _recipient) {\r\n        index = i;\r\n        flag = 0;\r\n        break;\r\n      }\r\n    }\r\n\r\n    require(\r\n      flag == 0 || _airdropAddressList[index] == _recipient,\r\n      \"This address is not eligible for the airdrop\"\r\n    );\r\n\r\n    require(\r\n      _currentAirdropAmount + _airdropAmountList[index] <= _maxAirdropAmount,\r\n      \"Airdropped 100% of the allocated amount\"\r\n    );\r\n\r\n    _processedAirdrop[_recipient] = true;\r\n    _currentAirdropAmount += _airdropAmountList[index];\r\n    _transfer(_admin, _recipient, _airdropAmountList[index]);\r\n    emit AirdropProcessed(\r\n      _recipient,\r\n      _airdropAmountList[index],\r\n      block.timestamp\r\n    );\r\n  }\r\n\r\n  function getAdmin () external view returns (address) {\r\n    return _admin;\r\n  }\r\n\r\n  function getMaxAirdropAmount() external view returns (uint256) {\r\n    return _maxAirdropAmount;\r\n  }\r\n\r\n  function getCurrentAirdropAmount() external view returns (uint256) {\r\n    return _currentAirdropAmount;\r\n  }\r\n\r\n  function getWhitelistedAddress() external view returns (address[] memory) {\r\n    return _airdropAddressList;\r\n  }\r\n\r\n  function getAllocatedAmount() external view returns (uint256[] memory) {\r\n    return _airdropAmountList;\r\n  }\r\n\r\n  function getProcessedAirdrop(address _address) external view returns (bool) {\r\n    return _processedAirdrop[_address];\r\n  }\r\n}\r\n",
  "sourcePath": "D:\\studio\\GitHub\\Cliq-Token-Airdrop\\token\\contracts\\CliqToken.sol",
  "compiler": {
    "name": "solc",
    "version": "0.8.10+commit.fc410830.Emscripten.clang"
  },
  "schemaVersion": "3.4.2",
  "updatedAt": "2022-06-10T10:19:45.184Z",
  "devdoc": {
    "kind": "dev",
    "methods": {
      "allowance(address,address)": {
        "details": "See {IERC20-allowance}."
      },
      "approve(address,uint256)": {
        "details": "See {IERC20-approve}. NOTE: If `amount` is the maximum `uint256`, the allowance is not updated on `transferFrom`. This is semantically equivalent to an infinite approval. Requirements: - `spender` cannot be the zero address."
      },
      "balanceOf(address)": {
        "details": "See {IERC20-balanceOf}."
      },
      "decimals()": {
        "details": "Returns the number of decimals used to get its user representation. For example, if `decimals` equals `2`, a balance of `505` tokens should be displayed to a user as `5.05` (`505 / 10 ** 2`). Tokens usually opt for a value of 18, imitating the relationship between Ether and Wei. This is the value {ERC20} uses, unless this function is overridden; NOTE: This information is only used for _display_ purposes: it in no way affects any of the arithmetic of the contract, including {IERC20-balanceOf} and {IERC20-transfer}."
      },
      "decreaseAllowance(address,uint256)": {
        "details": "Atomically decreases the allowance granted to `spender` by the caller. This is an alternative to {approve} that can be used as a mitigation for problems described in {IERC20-approve}. Emits an {Approval} event indicating the updated allowance. Requirements: - `spender` cannot be the zero address. - `spender` must have allowance for the caller of at least `subtractedValue`."
      },
      "increaseAllowance(address,uint256)": {
        "details": "Atomically increases the allowance granted to `spender` by the caller. This is an alternative to {approve} that can be used as a mitigation for problems described in {IERC20-approve}. Emits an {Approval} event indicating the updated allowance. Requirements: - `spender` cannot be the zero address."
      },
      "name()": {
        "details": "Returns the name of the token."
      },
      "symbol()": {
        "details": "Returns the symbol of the token, usually a shorter version of the name."
      },
      "totalSupply()": {
        "details": "See {IERC20-totalSupply}."
      },
      "transfer(address,uint256)": {
        "details": "See {IERC20-transfer}. Requirements: - `to` cannot be the zero address. - the caller must have a balance of at least `amount`."
      },
      "transferFrom(address,address,uint256)": {
        "details": "See {IERC20-transferFrom}. Emits an {Approval} event indicating the updated allowance. This is not required by the EIP. See the note at the beginning of {ERC20}. NOTE: Does not update the allowance if the current allowance is the maximum `uint256`. Requirements: - `from` and `to` cannot be the zero address. - `from` must have a balance of at least `amount`. - the caller must have allowance for ``from``'s tokens of at least `amount`."
      }
    },
    "version": 1
  },
  "userdoc": {
    "kind": "user",
    "methods": {},
    "version": 1
  }
}